:020000040000FA
:040000004FEF38F096
:106F5600316E31C083FF1200020E816E000E826E0A
:106F6600020E326E580E316E04EC39F0020E826E4D
:106F76001200040E816E000E826E020E326E580EE4
:106F8600316E04EC39F0020E826E1200080E816E2C
:106F9600000E826E020E326E580E316E04EC39F01F
:106FA600020E826E1200100E816E000E826E020EAE
:106FB600326E580E316E04EC39F0020E826E1200FB
:106FC60031503302F3CF35F0F4CF36F0315034027E
:106FD600F350362632503302F350362635C031F0A0
:106FE60036C032F01200376E84823750ABEC37F081
:106FF6008494000E326E030E316E04EC39F08492E6
:10700600000E326E030E316E04EC39F084821200EB
:10701600376E84823750ABEC37F08484000E326EC4
:10702600030E316E04EC39F08492000E326E030EBC
:10703600316E04EC39F084821200FF0E396EFF0EB9
:107046003A6E37C03BF038C03CF039503B263A50D8
:107056003C223BC067F03CC068F0696A6A6A6B6AAA
:107066006C6A6D6A6E6A12003F0006005B004F0094
:1070760066006D007D0007007F00670034323836F9
:107086003436323832360900400000000000E8038A
:10709600F40114000F0005006E0EF66E700EF76E0A
:1070A600000EF86E00EE01F010EE30F00900F5CF9C
:1070B600EEFFE550E150FAE100EE56F01B0EEE6AE7
:1070C600E806FDE1000EF86E000135EF3CF0010E1A
:1070D600F6EC37F03D0E386E7F0E396EAEEC38F0BA
:1070E600C00EF6EC37F0990E386E7E0E396EAEECA9
:1070F60038F0900EF6EC37F0070E326ED00E316E89
:1071060004EC39F0010EF6EC37F01200010EF6EC45
:1071160037F06A0E386E7F0E396EAEEC38F0C00E60
:10712600F6EC37F04C0E386E7F0E396EAEEC38F05A
:10713600D00EF6EC37F0CC0E386E7E0E396EAEEC15
:1071460038F0900EF6EC37F0950E386E7F0E396EED
:10715600AEEC38F01200000E3C6EC1EF38F03C5039
:1071660038243A6E000E39203B6E3AC0F6FF3BC01B
:10717600F7FF0800F5500BEC38F03C2A3C50382459
:107186003A6E000E39203B6E3AC0F6FF3BC0F7FF61
:107196000800F5500009D8A4D3EF38F0D5EF38F041
:1071A600B2EF38F0120084928494000E326E140E00
:1071B600316E04EC39F08482380EF6EC37F0000EAE
:1071C600326E050E316E04EC39F0380EF6EC37F0FF
:1071D600000E326E010E316E04EC39F0380EF6EC0C
:1071E60037F0080EF6EC37F00F0EF6EC37F0010E1E
:1071F600F6EC37F0380EF6EC37F0800EF6EC37F09A
:107206001200000E346E000E336E2AEF39F0000EB7
:10721600356E280E356412EF39F014EF39F016EF9B
:1072260039F028EF39F0000E366E020E36641EEF86
:1072360039F020EF39F022EF39F025EF39F0362A10
:1072460018EF39F0352A0CEF39F0334A342A315029
:10725600335C32503458D8A033EF39F035EF39F07B
:107266000AEF39F0120020EE41F0070EDE6AE8065A
:10727600FDE231A041EF39F043EF39F053EF39F039
:10728600395041263A5042223B5043223C50442238
:107296003D5045223E5046223F504722405048220C
:1072A600D89039363A363B363C363D363E363F3652
:1072B6004036D8903832373236323532343233327D
:1072C600323231323150321033103410351036101C
:1072D60037103810D8A472EF39F074EF39F03CEF5C
:1072E60039F041C031F042C032F043C033F044C0FF
:1072F60034F045C035F046C036F047C037F048C0D8
:1073060038F01200000E636E000E626ECDEF39F09B
:107316000F0E956E000E386E000E376E2AEC3DF09D
:10732600300F426E320E4218D8B49CEF39F09EEF01
:1073360039F0B9EF39F0340E4218D8B4A5EF39F068
:10734600A7EF39F0B9EF39F0360E4218D8B4AEEFE0
:1073560039F0B0EF39F0B9EF39F0380E4218D8A449
:10736600B7EF39F0B9EF39F0CDEF39F0000E936E83
:10737600000E956E560E6224D96E000E6320DA6EEC
:1073860042C0DFFF62C03DF063C03EF097EC3AF0CA
:10739600624A632A6250645C6550800A416E63509B
:1073A600800A4158D8B0DAEF39F0DCEF39F08BEFCC
:1073B60039F01200000E816E000E836E010EF6EC9F
:1073C60037F0000E3E6E000E3D6EFF0E0BEC38F0F1
:1073D600000E326E320E316E04EC39F03D4A3E2A12
:1073E6003EBEFFEF39F03E5009E1100E3D5CD8A0DD
:1073F600FFEF39F001EF3AF0E8EF39F0C00EF6ECA6
:1074060037F0790E386E7F0E396EAEEC38F0816843
:107416008368000E826E000E326EC80E316E04EC6A
:1074260039F0020E826E000E816E000E836E000E23
:10743600326E640E316E04EC39F0000E826E816895
:107446008368000E326EC80E316E04EC39F0020EFF
:10745600826E000E816E000E836E030E326EE80E93
:10746600316E04EC39F0644A652A1200010EF6EC1E
:1074760037F0870E386E7F0E396EAEEC38F0C00EE0
:10748600F6EC37F0AA0E386E7E0E396EAEEC38F09A
:10749600D00EF6EC37F0CC0E386E7E0E396EAEECB2
:1074A60038F0000E816E000E836E000E826E8168CB
:1074B6008368010E326E2C0E316E04EC39F0020E2A
:1074C600826E000E816E000E836E010E326E2C0EE1
:1074D600316E04EC39F0000E826E81688368020E0C
:1074E600326E580E316E04EC39F0020E826E000ECA
:1074F600816E000E836E010E326E2C0E316E04EC20
:1075060039F0000E826E81688368070E326ED00EE7
:10751600316E04EC39F0020E826E000E816E000EA2
:10752600836E94EF3AF01200560E3D24D96E000E8B
:107536003E20DA6E320EDE18D8A4A4EF3AF0A6EF9B
:107546003AF0A8EF3AF0AFEC37F0560E3D24D96E7C
:10755600000E3E20DA6E340EDE18D8A4B5EF3AF0EF
:10756600B7EF3AF0B9EF3AF0BCEC37F0560E3D24DF
:10757600D96E000E3E20DA6E360EDE18D8A4C6EF9F
:107586003AF0C8EF3AF0CAEF3AF0C9EC37F0560EC7
:107596003D24D96E000E3E20DA6E380EDE18D8A4D1
:1075A600D7EF3AF0D9EF3AF0DBEF3AF0D6EC37F016
:1075B600000E816E150E3D24D96E000E3E20DA6E49
:1075C600560E3D24E16E000E3E20E26EDE50E618B9
:1075D600D8B4F0EF3AF0F2EF3AF0F4EF3AF039ECD3
:1075E6003AF01200000E396E000E386E49EF3BF08D
:1075F600000E816E010E326EF40E316E04EC39F01F
:10760600150E3824D96E000E3920DA6E320EDE18C9
:10761600D8A410EF3BF012EF3BF014EF3BF0AFECC9
:1076260037F0150E3824D96E000E3920DA6E340E76
:10763600DE18D8A421EF3BF023EF3BF025EF3BF01B
:10764600BCEC37F0150E3824D96E000E3920DA6EF0
:10765600360EDE18D8A432EF3BF034EF3BF036EFAF
:107666003BF0C9EC37F0150E3824D96E000E3920E0
:10767600DA6E380EDE18D8A443EF3BF045EF3BF048
:1076860047EF3BF0D6EC37F0384A392A3850645C7D
:107696006550800A376E3950800A3758D8B056EF91
:1076A6003BF058EF3BF0FBEF3AF0120020EE01F012
:1076B60010EE3BF0130EDBCFE3FFE806FCE2010E13
:1076C60064244F6E000E6520506ED8904F34D96EEC
:1076D6005034DA6E3B0ED926000EDA22DF50836E66
:1076E600808A010E6424376E000E6520386E38BE1F
:1076F60086EF3BF0385009E10A0E375CD8A086EFDA
:107706003BF088EF3BF0C6EF3BF0000E666E130EC3
:10771600666490EF3BF092EF3BF094EF3BF0C4EFE2
:107726003BF0EC0E376EFF0E386E4FC039F050C08E
:107736003AF0D89039363A363750392638503A2208
:107746003B0E3924D96E000E3A20DA6EDF50836E76
:10775600808A809880968094000E326E140E316E68
:1077660004EC39F03DC083FF809A8088809680942F
:10777600000E326E140E316E04EC39F0662A8AEF72
:107786003BF0809A8098120067C031F068C032F0F2
:1077960069C033F06AC034F06BC035F06CC036F0A7
:1077A6006DC037F06EC038F02D0E396E7F0E3A6E12
:1077B600950E3B6E4C0E3C6E2D0E3D6EF40E3E6EDF
:1077C600510E3F6E580E406E36EC39F031C04BF01C
:1077D60032C04CF033C04DF034C04EF035C04FF0DF
:1077E60036C050F037C051F038C052F0010E4B246D
:1077F600676E000E4C20686E000E4D20696E000EFE
:107806004E206A6E000E4F206B6E000E50206C6E7E
:10781600000E51206D6E000E52206E6E67C04BF04A
:1078260068C04CF069C04DF06AC04EF06BC04FF0B6
:107836006CC050F06DC051F06EC052F0320E2DEF9C
:107846003CF0D8905232513250324F324E324D3295
:107856004C324B32E82E24EF3CF04BC049F04DC081
:107866004AF01200000E926E060EC16EF80E936E6E
:10787600000E956E010E946E020E826E000E966ECE
:10788600D6EC38F00FEC3EF06FC031F070C032F03D
:107896001E0E346EEF0E336EE3EC37F031C037F068
:1078A60032C038F020EC38F0000E556E000E546EE3
:1078B600C7EC3BF04950030B020DF3CF53F0320EE9
:1078C6005326150E5424D96E000E5520DA6E53C079
:1078D600DFFF544A552A55BE7AEF3CF0555009E170
:1078E6000A0E545CD8A07AEF3CF07CEF3CF05BEFDC
:1078F6003CF0000E936E94EF3CF06AEC38F059ECD5
:107906003BF0F5EC3AF0809A010EF6EC37F0C80E33
:10791600386E7F0E396EAEEC38F085EC39F0DDEC62
:1079260039F065BEA0EF3CF0655009E10A0E645CD3
:10793600D8A0A0EF3CF0A2EF3CF080EF3CF089EC41
:1079460038F0A8EC3CF000EF00F020EE1FF010EE4F
:1079560039F0070EDBCFE3FFE806FCE24168426838
:10796600414A422A020E41184210D8A4BDEF3CF00B
:10797600BFEF3CF0C3EF3CF0000E426E000E416ECE
:10798600010E4114376E000E4214386ED890373609
:107996003836390E3724D96E000E3820DA6EDF50AD
:1079A600836E808A8094000E326E640E316E04EC13
:1079B60039F0010E4114376E000E4214386ED8901D
:1079C60037363836390E3724D96E000E3820DA6E3F
:1079D600DF50836E809A8088000E326E640E316EA0
:1079E60004EC39F0010E4114376E000E4214386E65
:1079F600D89037363836390E3724D96E000E3820EF
:107A0600DA6EDF50836E80988086000E326E640ECA
:107A1600316E04EC39F0010E4114376E000E42143B
:107A2600386ED89037363836390E3724D96E000E70
:107A36003820DA6EDF50836E80968084000E326EB8
:107A4600640E316E04EC39F0B3EF3CF01200000E18
:107A56003A6E000E396E000E3C6E81CF3BF0DBEFC6
:107A66003DF0000E3D6E830E3D24F66EF76A7E0EE7
:107A7600F7220800F550FF0A811283B645EF3DF064
:107A860047EF3DF05FEF3DF0000E326E0F0E316EA8
:107A960004EC39F083B652EF3DF054EF3DF05FEF62
:107AA6003DF083A659EF3DF05BEF3DF054EF3DF01E
:107AB6003D283C6ED1EF3DF083B464EF3DF066EFB8
:107AC6003DF07FEF3DF0000E326E0F0E316E04EC8E
:107AD60039F083B471EF3DF073EF3DF07FEF3DF089
:107AE60083A478EF3DF07AEF3DF073EF3DF03D5023
:107AF600040F3C6ED1EF3DF083B284EF3DF086EF8C
:107B06003DF09FEF3DF0000E326E0F0E316E04EC2D
:107B160039F083B291EF3DF093EF3DF09FEF3DF0EA
:107B260083A298EF3DF09AEF3DF093EF3DF03D5084
:107B3600070F3C6ED1EF3DF083B0A4EF3DF0A6EF0A
:107B46003DF0BFEF3DF0000E326E0F0E316E04ECCD
:107B560039F083B0B1EF3DF0B3EF3DF0BFEF3DF04C
:107B660083A0B8EF3DF0BAEF3DF0B3EF3DF03D50E6
:107B76000A0F3C6ED1EF3DF0830E3D24F66EF76A98
:107B86007E0EF7220800F55081163D2A020E3D644E
:107B9600CFEF3DF0D1EF3DF036EF3DF0000E326E07
:107BA600050E316E04EC39F0050E3926000E3A2228
:107BB6003750395C38503A58D8A0E4EF3DF0E6EF3C
:107BC6003DF0EFEF3DF037503810D8A4EDEF3DF023
:107BD600EFEF3DF0F7EF3DF03C50D8B4F5EF3DF058
:107BE600F7EF3DF034EF3DF03C50D8A4FDEF3DF00B
:107BF600FFEF3DF000EF3EF03C680B0E3C18D8A4BA
:107C060007EF3EF009EF3EF00BEF3EF0000E3C6E44
:107C16003BC081FF3C501200010EF6EC37F02D0EF2
:107C2600386E7F0E396EAEEC38F0000E666E0E0EB4
:107C3600666420EF3EF022EF3EF024EF3EF030EF98
:107C46003EF0000E326EC80E316E04EC39F0100EA6
:107C5600F6EC37F0662A1AEF3EF0000E666E0F0E4F
:107C6600666438EF3EF03AEF3EF03CEF3EF048EF08
:107C76003EF0000E326EC80E316E04EC39F0140E72
:107C8600F6EC37F0662A32EF3EF0010EF6EC37F0EE
:107C9600C00EF6EC37F05B0E386E7F0E396EAEEC2A
:107CA60038F0900EF6EC37F0FD0E386E7E0E396E1B
:107CB600AEEC38F061EF3EF06F4A702A81A666EFAF
:107CC6003EF068EF3EF06FEF3EF081B86DEF3EF0AC
:107CD6006FEF3EF05FEF3EF081B874EF3EF076EF67
:107CE6003EF040EF3FF0010EF6EC37F0A20E386E94
:107CF6007F0E396EAEEC38F0000E666E080E6664C6
:107D060087EF3EF089EF3EF08BEF3EF097EF3EF0C7
:107D1600000E326EC80E316E04EC39F0100EF6EC21
:107D260037F0662A81EF3EF0000E666E090E666435
:107D36009FEF3EF0A1EF3EF0A3EF3EF0AFEF3EF037
:107D4600000E326EC80E316E04EC39F0140EF6ECED
:107D560037F0662A99EF3EF0010EF6EC37F0AF0EDB
:107D6600386E7F0E396EAEEC38F0070E326ED00EDE
:107D7600316E04EC39F0010EF6EC37F0E00E386E99
:107D86007F0E396EAEEC38F0C00EF6EC37F0F50E1D
:107D9600386E7F0E396EAEEC38F0900EF6EC37F09A
:107DA600BB0E386E7E0E396EAEEC38F0D00EF6ECA9
:107DB60037F0EB0E386E7F0E396EAEEC38F08A0E69
:107DC600F6EC37F0130E326E880E316E04EC39F095
:107DD600010EF6EC37F00D0E386E7F0E396EAEECF6
:107DE60038F0C00EF6EC37F0ED0E386E7E0E396EBA
:107DF600AEEC38F0900EF6EC37F0DD0E386E7E0EF7
:107E0600396EAEEC38F0D00EF6EC37F01D0E386E4B
:107E16007F0E396EAEEC38F0130E326E880E316E70
:107E260004EC39F0010EF6EC37F0D40E386E7F0E06
:107E3600396EAEEC38F0C00EF6EC37F0870E386EC1
:107E46007E0E396EAEEC38F0900EF6EC37F0BC0EC6
:107E5600386E7F0E396EAEEC38F0D00EF6EC37F099
:107E66005B0E386E7F0E396EAEEC38F081B63EEFA3
:107E76003FF040EF3FF039EF3FF0120000010204FF
:107E86000053657175656E63696120646F204C45AA
:107E96004453002020202053657175656E63696127
:107EA6002020200020204E616F2064657369737462
:107EB600612120200028342947202020202020204E
:107EC6002042283829004E6F766F204A6F676F2050
:107ED6002D3E2052535400283629202D3E204C4555
:107EE60044204233204200283429202D3E204C4590
:107EF60044204232204700524234202D3E20545521
:107F0600544F5249414C00283229202D3E204C45E1
:107F160044204231205200283829202D3E204C454D
:107F260044204234205900204C6F6164696E6720FA
:107F360047656E6975730020202020204154454E08
:107F460043414F20200056616D6F73204465206EBB
:107F56006F766F3F00524233202D3E20494E4943F3
:107F660049415200566F636520436F6E73656775AE
:107F76006975002020204D7569746F2062656D213A
:107F8600002020204E616F20446575203D2800208A
:107F96002020202020203D442020200020202020BA
:107FA6005475746F7269616C00202020436F6E7483
:107FB600726F6C657300426F6D204A6F676F203D6C
:107FC6004400202020205355412056455A00526532
:107FD60070726F64757A61206100202020205445FC
:107FE600434C4153002020202020592836290020C8
:0A7FF600202020202832295200002C
:020000040020DA
:08000000FFFFFFFFFFFFFFFF00
:020000040030CA
:0E000000FF021F00FF8381FF0FC00FE00F40C3
:00000001FF
